{
  "_format": "hh-sol-artifact-1",
  "contractName": "CapitalRouter",
  "sourceName": "contracts/CapitalRouter.sol",
  "abi": [
    {
      "inputs": [
        {
          "internalType": "address",
          "name": "_usdc",
          "type": "address"
        }
      ],
      "stateMutability": "nonpayable",
      "type": "constructor"
    },
    {
      "inputs": [
        {
          "internalType": "address",
          "name": "owner",
          "type": "address"
        }
      ],
      "name": "OwnableInvalidOwner",
      "type": "error"
    },
    {
      "inputs": [
        {
          "internalType": "address",
          "name": "account",
          "type": "address"
        }
      ],
      "name": "OwnableUnauthorizedAccount",
      "type": "error"
    },
    {
      "inputs": [],
      "name": "ReentrancyGuardReentrantCall",
      "type": "error"
    },
    {
      "inputs": [
        {
          "internalType": "address",
          "name": "token",
          "type": "address"
        }
      ],
      "name": "SafeERC20FailedOperation",
      "type": "error"
    },
    {
      "anonymous": false,
      "inputs": [
        {
          "indexed": true,
          "internalType": "bytes32",
          "name": "agentDID",
          "type": "bytes32"
        },
        {
          "indexed": false,
          "internalType": "uint256",
          "name": "baseAllocationBps",
          "type": "uint256"
        },
        {
          "indexed": false,
          "internalType": "uint256",
          "name": "timestamp",
          "type": "uint256"
        }
      ],
      "name": "AgentRegistered",
      "type": "event"
    },
    {
      "anonymous": false,
      "inputs": [
        {
          "indexed": true,
          "internalType": "bytes32",
          "name": "agentDID",
          "type": "bytes32"
        },
        {
          "indexed": false,
          "internalType": "uint256",
          "name": "oldBps",
          "type": "uint256"
        },
        {
          "indexed": false,
          "internalType": "uint256",
          "name": "newBps",
          "type": "uint256"
        },
        {
          "indexed": false,
          "internalType": "uint256",
          "name": "reputationScore",
          "type": "uint256"
        },
        {
          "indexed": false,
          "internalType": "uint256",
          "name": "timestamp",
          "type": "uint256"
        }
      ],
      "name": "AllocationUpdated",
      "type": "event"
    },
    {
      "anonymous": false,
      "inputs": [
        {
          "indexed": true,
          "internalType": "address",
          "name": "depositor",
          "type": "address"
        },
        {
          "indexed": false,
          "internalType": "uint256",
          "name": "amount",
          "type": "uint256"
        },
        {
          "indexed": false,
          "internalType": "uint256",
          "name": "timestamp",
          "type": "uint256"
        }
      ],
      "name": "CapitalDeposited",
      "type": "event"
    },
    {
      "anonymous": false,
      "inputs": [
        {
          "indexed": true,
          "internalType": "address",
          "name": "recipient",
          "type": "address"
        },
        {
          "indexed": false,
          "internalType": "uint256",
          "name": "amount",
          "type": "uint256"
        },
        {
          "indexed": false,
          "internalType": "uint256",
          "name": "timestamp",
          "type": "uint256"
        }
      ],
      "name": "CapitalWithdrawn",
      "type": "event"
    },
    {
      "anonymous": false,
      "inputs": [
        {
          "indexed": true,
          "internalType": "address",
          "name": "previousOwner",
          "type": "address"
        },
        {
          "indexed": true,
          "internalType": "address",
          "name": "newOwner",
          "type": "address"
        }
      ],
      "name": "OwnershipTransferred",
      "type": "event"
    },
    {
      "anonymous": false,
      "inputs": [
        {
          "indexed": true,
          "internalType": "bytes32",
          "name": "agentDID",
          "type": "bytes32"
        },
        {
          "indexed": false,
          "internalType": "address",
          "name": "sessionKey",
          "type": "address"
        },
        {
          "indexed": false,
          "internalType": "uint256",
          "name": "valueLimit",
          "type": "uint256"
        },
        {
          "indexed": false,
          "internalType": "bytes4",
          "name": "functionSelector",
          "type": "bytes4"
        },
        {
          "indexed": false,
          "internalType": "uint256",
          "name": "timestamp",
          "type": "uint256"
        }
      ],
      "name": "SessionKeyAuthorized",
      "type": "event"
    },
    {
      "inputs": [
        {
          "internalType": "uint256",
          "name": "",
          "type": "uint256"
        }
      ],
      "name": "agentDIDs",
      "outputs": [
        {
          "internalType": "bytes32",
          "name": "",
          "type": "bytes32"
        }
      ],
      "stateMutability": "view",
      "type": "function"
    },
    {
      "inputs": [
        {
          "internalType": "bytes32",
          "name": "",
          "type": "bytes32"
        }
      ],
      "name": "agents",
      "outputs": [
        {
          "internalType": "bytes32",
          "name": "passportDID",
          "type": "bytes32"
        },
        {
          "internalType": "uint256",
          "name": "baseAllocationBps",
          "type": "uint256"
        },
        {
          "internalType": "uint256",
          "name": "currentAllocationBps",
          "type": "uint256"
        },
        {
          "internalType": "uint256",
          "name": "reputationScore",
          "type": "uint256"
        },
        {
          "internalType": "uint256",
          "name": "lastReputationUpdate",
          "type": "uint256"
        },
        {
          "internalType": "bool",
          "name": "isActive",
          "type": "bool"
        }
      ],
      "stateMutability": "view",
      "type": "function"
    },
    {
      "inputs": [
        {
          "internalType": "bytes32",
          "name": "agentDID",
          "type": "bytes32"
        },
        {
          "internalType": "address",
          "name": "sessionKey",
          "type": "address"
        },
        {
          "internalType": "bytes4",
          "name": "selector",
          "type": "bytes4"
        }
      ],
      "name": "authorizeSessionKey",
      "outputs": [],
      "stateMutability": "nonpayable",
      "type": "function"
    },
    {
      "inputs": [
        {
          "internalType": "uint256",
          "name": "amount",
          "type": "uint256"
        }
      ],
      "name": "deposit",
      "outputs": [],
      "stateMutability": "nonpayable",
      "type": "function"
    },
    {
      "inputs": [
        {
          "internalType": "bytes32",
          "name": "agentDID",
          "type": "bytes32"
        }
      ],
      "name": "getAgentConfig",
      "outputs": [
        {
          "components": [
            {
              "internalType": "bytes32",
              "name": "passportDID",
              "type": "bytes32"
            },
            {
              "internalType": "uint256",
              "name": "baseAllocationBps",
              "type": "uint256"
            },
            {
              "internalType": "uint256",
              "name": "currentAllocationBps",
              "type": "uint256"
            },
            {
              "internalType": "uint256",
              "name": "reputationScore",
              "type": "uint256"
            },
            {
              "internalType": "uint256",
              "name": "lastReputationUpdate",
              "type": "uint256"
            },
            {
              "internalType": "bool",
              "name": "isActive",
              "type": "bool"
            }
          ],
          "internalType": "struct CapitalRouter.AgentConfig",
          "name": "",
          "type": "tuple"
        }
      ],
      "stateMutability": "view",
      "type": "function"
    },
    {
      "inputs": [],
      "name": "getAllAgentDIDs",
      "outputs": [
        {
          "internalType": "bytes32[]",
          "name": "",
          "type": "bytes32[]"
        }
      ],
      "stateMutability": "view",
      "type": "function"
    },
    {
      "inputs": [
        {
          "internalType": "bytes32",
          "name": "agentDID",
          "type": "bytes32"
        }
      ],
      "name": "getAllocation",
      "outputs": [
        {
          "internalType": "uint256",
          "name": "",
          "type": "uint256"
        }
      ],
      "stateMutability": "view",
      "type": "function"
    },
    {
      "inputs": [],
      "name": "getTreasuryBalance",
      "outputs": [
        {
          "internalType": "uint256",
          "name": "",
          "type": "uint256"
        }
      ],
      "stateMutability": "view",
      "type": "function"
    },
    {
      "inputs": [],
      "name": "owner",
      "outputs": [
        {
          "internalType": "address",
          "name": "",
          "type": "address"
        }
      ],
      "stateMutability": "view",
      "type": "function"
    },
    {
      "inputs": [
        {
          "internalType": "bytes32",
          "name": "agentDID",
          "type": "bytes32"
        },
        {
          "internalType": "uint256",
          "name": "baseAllocationBps",
          "type": "uint256"
        },
        {
          "internalType": "uint256",
          "name": "initialReputation",
          "type": "uint256"
        }
      ],
      "name": "registerAgent",
      "outputs": [],
      "stateMutability": "nonpayable",
      "type": "function"
    },
    {
      "inputs": [],
      "name": "renounceOwnership",
      "outputs": [],
      "stateMutability": "nonpayable",
      "type": "function"
    },
    {
      "inputs": [],
      "name": "totalDeposited",
      "outputs": [
        {
          "internalType": "uint256",
          "name": "",
          "type": "uint256"
        }
      ],
      "stateMutability": "view",
      "type": "function"
    },
    {
      "inputs": [],
      "name": "totalReputationWeight",
      "outputs": [
        {
          "internalType": "uint256",
          "name": "",
          "type": "uint256"
        }
      ],
      "stateMutability": "view",
      "type": "function"
    },
    {
      "inputs": [
        {
          "internalType": "address",
          "name": "newOwner",
          "type": "address"
        }
      ],
      "name": "transferOwnership",
      "outputs": [],
      "stateMutability": "nonpayable",
      "type": "function"
    },
    {
      "inputs": [
        {
          "internalType": "bytes32",
          "name": "agentDID",
          "type": "bytes32"
        },
        {
          "internalType": "uint256",
          "name": "newScore",
          "type": "uint256"
        }
      ],
      "name": "updateReputation",
      "outputs": [],
      "stateMutability": "nonpayable",
      "type": "function"
    },
    {
      "inputs": [],
      "name": "usdc",
      "outputs": [
        {
          "internalType": "contract IERC20",
          "name": "",
          "type": "address"
        }
      ],
      "stateMutability": "view",
      "type": "function"
    },
    {
      "inputs": [
        {
          "internalType": "uint256",
          "name": "amount",
          "type": "uint256"
        }
      ],
      "name": "withdraw",
      "outputs": [],
      "stateMutability": "nonpayable",
      "type": "function"
    }
  ],
  "bytecode": "0x60a060405234801561001057600080fd5b506040516111f13803806111f183398101604081905261002f916100e4565b338061005557604051631e4fbdf760e01b81526000600482015260240160405180910390fd5b61005e81610094565b5060017f9b779b17422d0df92223018b32b4d1fa46e071723d6817e2486d003becc55f00556001600160a01b0316608052610114565b600080546001600160a01b038381166001600160a01b0319831681178455604051919092169283917f8be0079c531659141344cd1fd0a4f28419497f9722a3daafe3b4186f6b6457e09190a35050565b6000602082840312156100f657600080fd5b81516001600160a01b038116811461010d57600080fd5b9392505050565b60805161109f610152600039600081816101a70152818161034201528181610425015281816105ef0152818161074f0152610837015261109f6000f3fe608060405234801561001057600080fd5b506004361061010b5760003560e01c80638da5cb5b116100a2578063b6b55f2511610071578063b6b55f25146102c8578063c3fc5484146102db578063d3e308fe146102ee578063f2fde38b14610301578063ff50abdc1461031457600080fd5b80638da5cb5b1461023b5780639b5655dc1461024c5780639fc4b65314610254578063abdca2d3146102b557600080fd5b80635b4fb7e5116100de5780635b4fb7e5146101f8578063715018a61461020b57806372bbfefd146102135780638bb17e0e1461022857600080fd5b80632e1a7d4d146101105780632e20ee18146101255780633e413bee146101a25780633fca20ae146101e1575b600080fd5b61012361011e366004610e90565b61031d565b005b61016e610133366004610e90565b600360208190526000918252604090912080546001820154600283015493830154600484015460059094015492949193919290919060ff1686565b6040805196875260208701959095529385019290925260608401526080830152151560a082015260c0015b60405180910390f35b6101c97f000000000000000000000000000000000000000000000000000000000000000081565b6040516001600160a01b039091168152602001610199565b6101ea60025481565b604051908152602001610199565b6101ea610206366004610e90565b6104b3565b6101236104d4565b61021b6104e8565b6040516101999190610ea9565b610123610236366004610eed565b610540565b6000546001600160a01b03166101c9565b6101ea6105d7565b610267610262366004610e90565b610667565b6040516101999190600060c082019050825182526020830151602083015260408301516040830152606083015160608301526080830151608083015260a0830151151560a083015292915050565b6101ea6102c3366004610e90565b610702565b6101236102d6366004610e90565b6107dd565b6101236102e9366004610f0f565b6108ad565b6101236102fc366004610f57565b610a4a565b61012361030f366004610fa4565b610b16565b6101ea60015481565b610325610b51565b61032d610b7e565b6040516370a0823160e01b81523060048201527f00000000000000000000000000000000000000000000000000000000000000006001600160a01b0316906370a0823190602401602060405180830381865afa158015610391573d6000803e3d6000fd5b505050506040513d601f19601f820116820180604052508101906103b59190610fbf565b8111156104005760405162461bcd60e51b8152602060048201526014602482015273496e73756666696369656e742062616c616e636560601b60448201526064015b60405180910390fd5b80600160008282546104129190610fee565b9091555061044c90506001600160a01b037f0000000000000000000000000000000000000000000000000000000000000000163383610bac565b6040805182815242602082015233917f916a39c9059ae06ba16e3a7780c58dc0199a13a37df824079ce5a924797a3dc991015b60405180910390a26104b060017f9b779b17422d0df92223018b32b4d1fa46e071723d6817e2486d003becc55f0055565b50565b600481815481106104c357600080fd5b600091825260209091200154905081565b6104dc610b51565b6104e66000610be1565b565b6060600480548060200260200160405190810160405280929190818152602001828054801561053657602002820191906000526020600020905b815481526020019060010190808311610522575b5050505050905090565b610548610b51565b6000828152600360205260409020600581015460ff1661059d5760405162461bcd60e51b815260206004820152601060248201526f4167656e74206e6f742061637469766560801b60448201526064016103f7565b8181600301546002546105b09190610fee565b6105ba9190611007565b600255600381018290554260048201556105d2610c31565b505050565b6040516370a0823160e01b81523060048201526000907f00000000000000000000000000000000000000000000000000000000000000006001600160a01b0316906370a0823190602401602060405180830381865afa15801561063e573d6000803e3d6000fd5b505050506040513d601f19601f820116820180604052508101906106629190610fbf565b905090565b6106a56040518060c0016040528060008019168152602001600081526020016000815260200160008152602001600081526020016000151581525090565b50600090815260036020818152604092839020835160c081018552815481526001820154928101929092526002810154938201939093529082015460608201526004820154608082015260059091015460ff16151560a082015290565b6000818152600360205260408120600581015460ff1615806107245750600254155b156107325750600092915050565b60025460038201546040516370a0823160e01b81523060048201527f00000000000000000000000000000000000000000000000000000000000000006001600160a01b0316906370a0823190602401602060405180830381865afa15801561079e573d6000803e3d6000fd5b505050506040513d601f19601f820116820180604052508101906107c29190610fbf565b6107cc919061101a565b6107d69190611031565b9392505050565b6107e5610b7e565b6000811161082a5760405162461bcd60e51b81526020600482015260126024820152710416d6f756e74206d757374206265203e20360741b60448201526064016103f7565b61085f6001600160a01b037f000000000000000000000000000000000000000000000000000000000000000016333084610d3a565b80600160008282546108719190611007565b90915550506040805182815242602082015233917f43632c44ad183aca65fd0d97ffac3813aa6eb5e0a535926201b7f1c03deccf75910161047f565b6108b5610b51565b600083815260036020526040902054156109065760405162461bcd60e51b8152602060048201526012602482015271105b1c9958591e481c9959da5cdd195c995960721b60448201526064016103f7565b6127108211156109455760405162461bcd60e51b815260206004820152600a602482015269427073203e203130302560b01b60448201526064016103f7565b6040805160c0810182528481526020808201858152828401868152606084018681524260808601908152600160a0870181815260008c8152600397889052988920975188559451878201559251600280880191909155915194860194909455925160048086019190915591516005909401805460ff1916941515949094179093558054928301815583527f8a35acfbc15ff81a39ae7d344fd709f28e8600b4aa8c65c6b64bfe7fe36bd19b9091018590558054839290610a06908490611007565b90915550506040805183815242602082015284917f8f792ddd3a3ff14f5f72d9abd019ada969874f41eb3ea9d0a3347846a2c3c4f6910160405180910390a2505050565b610a52610b51565b6000838152600360205260409020600581015460ff16610aa75760405162461bcd60e51b815260206004820152601060248201526f4167656e74206e6f742061637469766560801b60448201526064016103f7565b6000610ab285610702565b604080516001600160a01b0387168152602081018390526001600160e01b0319861681830152426060820152905191925086917f72a4e7327bf8e619573bcfde92f887f20515465a7a8738f5f2bd8c2c709884ca9181900360800190a25050505050565b610b1e610b51565b6001600160a01b038116610b4857604051631e4fbdf760e01b8152600060048201526024016103f7565b6104b081610be1565b6000546001600160a01b031633146104e65760405163118cdaa760e01b81523360048201526024016103f7565b610b86610d76565b60027f9b779b17422d0df92223018b32b4d1fa46e071723d6817e2486d003becc55f0055565b610bb98383836001610db8565b6105d257604051635274afe760e01b81526001600160a01b03841660048201526024016103f7565b600080546001600160a01b038381166001600160a01b0319831681178455604051919092169283917f8be0079c531659141344cd1fd0a4f28419497f9722a3daafe3b4186f6b6457e09190a35050565b600254600003610c3d57565b60005b6004548110156104b05760006003600060048481548110610c6357610c63611053565b600091825260208083209091015483528201929092526040019020600581015490915060ff16610c935750610d32565b6002808201549054600383015460009190610cb09061271061101a565b610cba9190611031565b905080836002018190555060048481548110610cd857610cd8611053565b60009182526020918290200154600385015460408051868152938401859052830152426060830152907fee51c98c872482e7276a7f8e98198b0613cce4422fe40e4914b6a6714fbc42d79060800160405180910390a25050505b600101610c40565b610d48848484846001610e1e565b610d7057604051635274afe760e01b81526001600160a01b03851660048201526024016103f7565b50505050565b7f9b779b17422d0df92223018b32b4d1fa46e071723d6817e2486d003becc55f00546002036104e657604051633ee5aeb560e01b815260040160405180910390fd5b60405163a9059cbb60e01b60008181526001600160a01b038616600452602485905291602083604481808b5af192506001600051148316610e12578383151615610e05573d6000823e3d81fd5b6000873b113d1516831692505b60405250949350505050565b6040516323b872dd60e01b60008181526001600160a01b038781166004528616602452604485905291602083606481808c5af192506001600051148316610e7e578383151615610e71573d6000823e3d81fd5b6000883b113d1516831692505b60405250600060605295945050505050565b600060208284031215610ea257600080fd5b5035919050565b6020808252825182820181905260009190848201906040850190845b81811015610ee157835183529284019291840191600101610ec5565b50909695505050505050565b60008060408385031215610f0057600080fd5b50508035926020909101359150565b600080600060608486031215610f2457600080fd5b505081359360208301359350604090920135919050565b80356001600160a01b0381168114610f5257600080fd5b919050565b600080600060608486031215610f6c57600080fd5b83359250610f7c60208501610f3b565b915060408401356001600160e01b031981168114610f9957600080fd5b809150509250925092565b600060208284031215610fb657600080fd5b6107d682610f3b565b600060208284031215610fd157600080fd5b5051919050565b634e487b7160e01b600052601160045260246000fd5b8181038181111561100157611001610fd8565b92915050565b8082018082111561100157611001610fd8565b808202811582820484141761100157611001610fd8565b60008261104e57634e487b7160e01b600052601260045260246000fd5b500490565b634e487b7160e01b600052603260045260246000fdfea26469706673582212207e9a94043dc4d8172599f7f373aff5dc07aec4346d32164ec1340d04a4bc9b2f64736f6c63430008180033",
  "linkReferences": {},
  "deployedLinkReferences": {}
}